{
  "contractName": "RegistryStub",
  "abi": [
    {
      "constant": true,
      "inputs": [
        {
          "name": "",
          "type": "uint256"
        }
      ],
      "name": "swapOfferings",
      "outputs": [
        {
          "name": "",
          "type": "address"
        }
      ],
      "payable": false,
      "stateMutability": "view",
      "type": "function"
    },
    {
      "anonymous": false,
      "inputs": [
        {
          "indexed": false,
          "name": "newSwapOffering",
          "type": "address"
        }
      ],
      "name": "newOfferingCreated",
      "type": "event"
    },
    {
      "constant": false,
      "inputs": [
        {
          "name": "url",
          "type": "string"
        }
      ],
      "name": "createNewOffering",
      "outputs": [],
      "payable": false,
      "stateMutability": "nonpayable",
      "type": "function"
    },
    {
      "constant": true,
      "inputs": [
        {
          "name": "fromIndex",
          "type": "uint256"
        },
        {
          "name": "numberOfSwapOfferings",
          "type": "uint256"
        }
      ],
      "name": "paginateSwapOfferings",
      "outputs": [
        {
          "name": "",
          "type": "address[]"
        }
      ],
      "payable": false,
      "stateMutability": "view",
      "type": "function"
    }
  ],
  "bytecode": "0x608060405234801561001057600080fd5b50611b92806100206000396000f300608060405260043610610057576000357c0100000000000000000000000000000000000000000000000000000000900463ffffffff168063378d74491461005c5780633dcd7dfa146100c95780634eb964b614610155575b600080fd5b34801561006857600080fd5b50610087600480360381019080803590602001909291905050506101be565b604051808273ffffffffffffffffffffffffffffffffffffffff1673ffffffffffffffffffffffffffffffffffffffff16815260200191505060405180910390f35b3480156100d557600080fd5b506100fe60048036038101908080359060200190929190803590602001909291905050506101fc565b6040518080602001828103825283818151815260200191508051906020019060200280838360005b83811015610141578082015181840152602081019050610126565b505050509050019250505060405180910390f35b34801561016157600080fd5b506101bc600480360381019080803590602001908201803590602001908080601f0160208091040260200160405190810160405280939291908181526020018383808284378201915050505050509192919290505050610391565b005b6000818154811015156101cd57fe5b906000526020600020016000915054906101000a900473ffffffffffffffffffffffffffffffffffffffff1681565b606060006060600080851115156102a1576040517f08c379a000000000000000000000000000000000000000000000000000000000815260040180806020018281038252602d8152602001807f6e756d6265724f66537761704f66666572696e6773206d75737420626520677281526020017f6561746572207468616e20302e0000000000000000000000000000000000000081525060400191505060405180910390fd5b6102b4858761052b90919063ffffffff16565b9250846040519080825280602002602001820160405280156102e55781602001602082028038833980820191505090505b5091508590505b828110156103855760008181548110151561030357fe5b9060005260206000200160009054906101000a900473ffffffffffffffffffffffffffffffffffffffff16828281518110151561033c57fe5b9060200190602002019073ffffffffffffffffffffffffffffffffffffffff16908173ffffffffffffffffffffffffffffffffffffffff168152505080806001019150506102ec565b81935050505092915050565b6000813361039d61054c565b80806020018373ffffffffffffffffffffffffffffffffffffffff1673ffffffffffffffffffffffffffffffffffffffff168152602001828103825284818151815260200191508051906020019080838360005b8381101561040c5780820151818401526020810190506103f1565b50505050905090810190601f1680156104395780820380516001836020036101000a031916815260200191505b509350505050604051809103906000f08015801561045b573d6000803e3d6000fd5b50905060008190806001815401808255809150509060018203906000526020600020016000909192909190916101000a81548173ffffffffffffffffffffffffffffffffffffffff021916908373ffffffffffffffffffffffffffffffffffffffff160217905550507f823747467ead2784ca3ea37b0d3ea1cca229e85ec5fd1948cab7578ed6a69b0681604051808273ffffffffffffffffffffffffffffffffffffffff1673ffffffffffffffffffffffffffffffffffffffff16815260200191505060405180910390a15050565b600080828401905083811015151561054257600080fd5b8091505092915050565b60405161160a8061055d83390190560060806040523480156200001157600080fd5b506040516200160a3803806200160a8339810180604052810190808051820192919060200180519060200190929190505050806000806101000a81548173ffffffffffffffffffffffffffffffffffffffff021916908373ffffffffffffffffffffffffffffffffffffffff16021790555081600190805190602001906200009b929190620000a4565b50505062000153565b828054600181600116156101000203166002900490600052602060002090601f016020900481019282601f10620000e757805160ff191683800117855562000118565b8280016001018555821562000118579182015b8281111562000117578251825591602001919060010190620000fa565b5b5090506200012791906200012b565b5090565b6200015091905b808211156200014c57600081600090555060010162000132565b5090565b90565b6114a780620001636000396000f3006080604052600436106100a4576000357c0100000000000000000000000000000000000000000000000000000000900463ffffffff1680633da0e66e146100a95780635600f04f1461014457806378dc3356146101d457806379bb9cea146102135780638da5cb5b1461022a578063b8afaa4814610281578063bd097e21146102ac578063c4bce65c146102b6578063d541beb31461032f578063eb84e7f214610360575b600080fd5b3480156100b557600080fd5b506100d86004803603810190808035600019169060200190929190505050610411565b604051808673ffffffffffffffffffffffffffffffffffffffff1673ffffffffffffffffffffffffffffffffffffffff16815260200185815260200184815260200183815260200182600381111561012c57fe5b60ff1681526020019550505050505060405180910390f35b34801561015057600080fd5b50610159610491565b6040518080602001828103825283818151815260200191508051906020019080838360005b8381101561019957808201518184015260208101905061017e565b50505050905090810190601f1680156101c65780820380516001836020036101000a031916815260200191505b509250505060405180910390f35b3480156101e057600080fd5b506102116004803603810190808035600019169060200190929190803560001916906020019092919050505061052f565b005b34801561021f57600080fd5b5061022861093c565b005b34801561023657600080fd5b5061023f610b09565b604051808273ffffffffffffffffffffffffffffffffffffffff1673ffffffffffffffffffffffffffffffffffffffff16815260200191505060405180910390f35b34801561028d57600080fd5b50610296610b2e565b6040518082815260200191505060405180910390f35b6102b4610b34565b005b3480156102c257600080fd5b5061032d600480360381019080803573ffffffffffffffffffffffffffffffffffffffff169060200190929190803590602001909291908035906020019092919080356000191690602001909291908035906020019092919080359060200190929190505050610b6d565b005b34801561033b57600080fd5b5061035e60048036038101908080356000191690602001909291905050506110bc565b005b34801561036c57600080fd5b5061038f60048036038101908080356000191690602001909291905050506113ca565b604051808873ffffffffffffffffffffffffffffffffffffffff1673ffffffffffffffffffffffffffffffffffffffff16815260200187600019166000191681526020018681526020018581526020018481526020018381526020018260038111156103f757fe5b60ff16815260200197505050505050505060405180910390f35b60008060008060008060036000886000191660001916815260200190815260200160002090508060000160009054906101000a900473ffffffffffffffffffffffffffffffffffffffff168160020154826004015483600501548460060160009054906101000a900460ff16955095509550955095505091939590929450565b60018054600181600116156101000203166002900480601f0160208091040260200160405190810160405280929190818152602001828054600181600116156101000203166002900480156105275780601f106104fc57610100808354040283529160200191610527565b820191906000526020600020905b81548152906001019060200180831161050a57829003601f168201915b505050505081565b600060036000846000191660001916815260200190815260200160002090506001600381111561055b57fe5b8160060160009054906101000a900460ff16600381111561057857fe5b141515610613576040517f08c379a000000000000000000000000000000000000000000000000000000000815260040180806020018281038252602c8152602001807f496e636f72726563742073746174652e204f726465722063616e206e6f74206281526020017f6520636f6d706c657465642e000000000000000000000000000000000000000081525060400191505060405180910390fd5b82600019166002836040516020018082600019166000191681526020019150506040516020818303038152906040526040518082805190602001908083835b6020831015156106775780518252602082019150602081019050602083039250610652565b6001836020036101000a0380198251168184511680821785525050505050509050019150506020604051808303816000865af11580156106bb573d6000803e3d6000fd5b5050506040513d60208110156106d057600080fd5b81019080805190602001909291905050506000191614151561075a576040517f08c379a00000000000000000000000000000000000000000000000000000000081526004018080602001828103825260138152602001807f496e636f727265637420707265496d6167652e0000000000000000000000000081525060200191505060405180910390fd5b8060050154431015156107d5576040517f08c379a00000000000000000000000000000000000000000000000000000000081526004018080602001828103825260118152602001807f537761702068617320657870697265642e00000000000000000000000000000081525060200191505060405180910390fd5b60028160060160006101000a81548160ff021916908360038111156107f657fe5b021790555061082a816004015461081c836002015460025461143990919063ffffffff16565b61143990919063ffffffff16565b600281905550600081600401541115610889573373ffffffffffffffffffffffffffffffffffffffff166108fc82600401549081150290604051600060405180830381858888f19350505050158015610887573d6000803e3d6000fd5b505b8060000160009054906101000a900473ffffffffffffffffffffffffffffffffffffffff1673ffffffffffffffffffffffffffffffffffffffff166108fc82600201549081150290604051600060405180830381858888f193505050501580156108f7573d6000803e3d6000fd5b507fcbd087f9a8a65f06ed193f7147c5f9da5d4c1b09a2de92b7f4196854a3e0e7108360405180826000191660001916815260200191505060405180910390a1505050565b6000809054906101000a900473ffffffffffffffffffffffffffffffffffffffff1673ffffffffffffffffffffffffffffffffffffffff163373ffffffffffffffffffffffffffffffffffffffff16141515610a26576040517f08c379a000000000000000000000000000000000000000000000000000000000815260040180806020018281038252603c8152602001807f4f6e6c792074686520636f6e7472616374206f776e657220697320617574686f81526020017f72697a656420746f2063616c6c20746869732066756e6374696f6e2e0000000081525060400191505060405180910390fd5b6000809054906101000a900473ffffffffffffffffffffffffffffffffffffffff1673ffffffffffffffffffffffffffffffffffffffff166108fc610a8d6002543073ffffffffffffffffffffffffffffffffffffffff163161143990919063ffffffff16565b9081150290604051600060405180830381858888f19350505050158015610ab8573d6000803e3d6000fd5b507f20ff48730cba4edf79c677a2b72029c367eba9fc2c6626a3b132404d240e0d873073ffffffffffffffffffffffffffffffffffffffff16316040518082815260200191505060405180910390a1565b6000809054906101000a900473ffffffffffffffffffffffffffffffffffffffff1681565b60025481565b7f932461ba6e96b11d9e6e7794a08b1d4a8e6dfd4f1f2d93be10af806b75431e74346040518082815260200191505060405180910390a1565b60008060009054906101000a900473ffffffffffffffffffffffffffffffffffffffff1673ffffffffffffffffffffffffffffffffffffffff163373ffffffffffffffffffffffffffffffffffffffff16141515610c59576040517f08c379a000000000000000000000000000000000000000000000000000000000815260040180806020018281038252603c8152602001807f4f6e6c792074686520636f6e7472616374206f776e657220697320617574686f81526020017f72697a656420746f2063616c6c20746869732066756e6374696f6e2e0000000081525060400191505060405180910390fd5b600360008560001916600019168152602001908152602001600020905060006003811115610c8357fe5b8160060160009054906101000a900460ff166003811115610ca057fe5b141515610d15576040517f08c379a00000000000000000000000000000000000000000000000000000000081526004018080602001828103825260148152602001807f5377617020616c7265616479206578697374732e00000000000000000000000081525060200191505060405180910390fd5b600086111515610db3576040517f08c379a00000000000000000000000000000000000000000000000000000000081526004018080602001828103825260238152602001807f5377617020616d6f756e74206d7573742062652067726561746572207468617481526020017f20302e000000000000000000000000000000000000000000000000000000000081525060400191505060405180910390fd5b600083111515610e51576040517f08c379a00000000000000000000000000000000000000000000000000000000081526004018080602001828103825260318152602001807f626c6f636b734265666f726543616e63656c456e61626c6564206d757374206281526020017f652067726561746572207468617420302e00000000000000000000000000000081525060400191505060405180910390fd5b610e7d6002543073ffffffffffffffffffffffffffffffffffffffff163161143990919063ffffffff16565b610e90838861145a90919063ffffffff16565b11151515610f2c576040517f08c379a00000000000000000000000000000000000000000000000000000000081526004018080602001828103825260268152602001807f416d6f756e742069732067726561746572207468616e20617661696c626c652081526020017f66756e64732e000000000000000000000000000000000000000000000000000081525060400191505060405180910390fd5b868160000160006101000a81548173ffffffffffffffffffffffffffffffffffffffff021916908373ffffffffffffffffffffffffffffffffffffffff16021790555085816002018190555081816003018190555084816004018190555083816001018160001916905550610faa438461145a90919063ffffffff16565b816005018190555060018160060160006101000a81548160ff02191690836003811115610fd357fe5b0217905550610fff85610ff18860025461145a90919063ffffffff16565b61145a90919063ffffffff16565b6002819055508060000160009054906101000a900473ffffffffffffffffffffffffffffffffffffffff1673ffffffffffffffffffffffffffffffffffffffff166108fc82600301549081150290604051600060405180830381858888f19350505050158015611073573d6000803e3d6000fd5b507fa8a875d6996c44a0222280b69cc9466664306fba02da8f1104b730d8fef520428460405180826000191660001916815260200191505060405180910390a150505050505050565b60008060009054906101000a900473ffffffffffffffffffffffffffffffffffffffff1673ffffffffffffffffffffffffffffffffffffffff163373ffffffffffffffffffffffffffffffffffffffff161415156111a8576040517f08c379a000000000000000000000000000000000000000000000000000000000815260040180806020018281038252603c8152602001807f4f6e6c792074686520636f6e7472616374206f776e657220697320617574686f81526020017f72697a656420746f2063616c6c20746869732066756e6374696f6e2e0000000081525060400191505060405180910390fd5b6003600083600019166000191681526020019081526020016000209050600160038111156111d257fe5b8160060160009054906101000a900460ff1660038111156111ef57fe5b14151561128a576040517f08c379a000000000000000000000000000000000000000000000000000000000815260040180806020018281038252602b8152602001807f496e636f72726563742073746174652e204f726465722063616e206e6f74206281526020017f652043616e63656c65642e00000000000000000000000000000000000000000081525060400191505060405180910390fd5b8060050154431015151561132c576040517f08c379a00000000000000000000000000000000000000000000000000000000081526004018080602001828103825260328152602001807f43616e63656c207377617020626c6f636b2068656967687420686173206e6f7481526020017f206265656e2072656163686564207965742e000000000000000000000000000081525060400191505060405180910390fd5b60038160060160006101000a81548160ff0219169083600381111561134d57fe5b02179055506113818160040154611373836002015460025461143990919063ffffffff16565b61143990919063ffffffff16565b6002819055507fd2b335799f3ffc1b6f84a2a2b463bdc34a2d7d2b9fb8cfb6aadcbbd5c910514b8260405180826000191660001916815260200191505060405180910390a15050565b60036020528060005260406000206000915090508060000160009054906101000a900473ffffffffffffffffffffffffffffffffffffffff16908060010154908060020154908060030154908060040154908060050154908060060160009054906101000a900460ff16905087565b60008083831115151561144b57600080fd5b82840390508091505092915050565b600080828401905083811015151561147157600080fd5b80915050929150505600a165627a7a72305820161048dbefba0cfec217101e699f5ed5b92257ad29f23a9b3868dd64bbf5e55a0029a165627a7a723058201484e705c801f71ec03c7f69c18340843e2ef9f928a900dbddcdfea9866b49310029",
  "source": "pragma solidity ^0.4.24;\n\nimport './SwapOffering.sol';\nimport './SafeMath.sol';\n\ncontract RegistryStub {\n\n  using SafeMath for uint256;\n\n  address[] public swapOfferings;\n\n  event newOfferingCreated(address newSwapOffering);\n\n  function createNewOffering(string url) public {\n      address newSwapOffering = new SwapOffering(url, msg.sender);\n      swapOfferings.push(newSwapOffering);\n\n      emit newOfferingCreated(newSwapOffering);\n  }\n\n  function paginateSwapOfferings(uint256 fromIndex, uint256 numberOfSwapOfferings) external view returns (address[]) {\n    require(numberOfSwapOfferings > 0, \"numberOfSwapOfferings must be greater than 0.\");\n\n    uint256 toIndex = fromIndex.add(numberOfSwapOfferings);\n    address[] memory result = new address[](numberOfSwapOfferings);\n    for (uint i = fromIndex; i < toIndex; i++) {\n      result[i] = swapOfferings[i];\n    }\n\n    return result;\n  }\n}\n",
  "sourcePath": "/Users/lion/code/lncm/supercavitation-swaps/supercavitation-contracts/contracts/RegistryStub.sol",
  "compiler": {
    "name": "solc",
    "version": "0.4.24+commit.e67f0147.Emscripten.clang"
  },
  "schemaVersion": "2.0.1",
  "updatedAt": "2018-12-16T11:54:25.434Z"
}