{
  "contractName": "SwapOffering",
  "abi": [
    {
      "constant": true,
      "inputs": [],
      "name": "url",
      "outputs": [
        {
          "name": "",
          "type": "string"
        }
      ],
      "payable": false,
      "stateMutability": "view",
      "type": "function"
    },
    {
      "constant": true,
      "inputs": [],
      "name": "owner",
      "outputs": [
        {
          "name": "",
          "type": "address"
        }
      ],
      "payable": false,
      "stateMutability": "view",
      "type": "function"
    },
    {
      "constant": true,
      "inputs": [],
      "name": "lockedFunds",
      "outputs": [
        {
          "name": "",
          "type": "uint256"
        }
      ],
      "payable": false,
      "stateMutability": "view",
      "type": "function"
    },
    {
      "constant": true,
      "inputs": [
        {
          "name": "",
          "type": "bytes32"
        }
      ],
      "name": "swaps",
      "outputs": [
        {
          "name": "customer",
          "type": "address"
        },
        {
          "name": "preImageHash",
          "type": "bytes32"
        },
        {
          "name": "amount",
          "type": "uint256"
        },
        {
          "name": "supercavitationGas",
          "type": "uint256"
        },
        {
          "name": "reward",
          "type": "uint256"
        },
        {
          "name": "cancelBlockHeight",
          "type": "uint256"
        },
        {
          "name": "state",
          "type": "uint8"
        }
      ],
      "payable": false,
      "stateMutability": "view",
      "type": "function"
    },
    {
      "inputs": [
        {
          "name": "_url",
          "type": "string"
        },
        {
          "name": "_owner",
          "type": "address"
        }
      ],
      "payable": false,
      "stateMutability": "nonpayable",
      "type": "constructor"
    },
    {
      "anonymous": false,
      "inputs": [
        {
          "indexed": false,
          "name": "fundAmount",
          "type": "uint256"
        }
      ],
      "name": "contractFunded",
      "type": "event"
    },
    {
      "anonymous": false,
      "inputs": [
        {
          "indexed": false,
          "name": "balance",
          "type": "uint256"
        }
      ],
      "name": "contractWithdrawn",
      "type": "event"
    },
    {
      "anonymous": false,
      "inputs": [
        {
          "indexed": false,
          "name": "preImageHash",
          "type": "bytes32"
        }
      ],
      "name": "swapCreated",
      "type": "event"
    },
    {
      "anonymous": false,
      "inputs": [
        {
          "indexed": false,
          "name": "preImageHash",
          "type": "bytes32"
        }
      ],
      "name": "swapCompleted",
      "type": "event"
    },
    {
      "anonymous": false,
      "inputs": [
        {
          "indexed": false,
          "name": "preImageHash",
          "type": "bytes32"
        }
      ],
      "name": "swapCanceled",
      "type": "event"
    },
    {
      "constant": false,
      "inputs": [],
      "name": "fundContract",
      "outputs": [],
      "payable": true,
      "stateMutability": "payable",
      "type": "function"
    },
    {
      "constant": false,
      "inputs": [],
      "name": "withdrawAvailableFunds",
      "outputs": [],
      "payable": false,
      "stateMutability": "nonpayable",
      "type": "function"
    },
    {
      "constant": true,
      "inputs": [
        {
          "name": "preImageHash",
          "type": "bytes32"
        }
      ],
      "name": "getSwap",
      "outputs": [
        {
          "name": "customer",
          "type": "address"
        },
        {
          "name": "amount",
          "type": "uint256"
        },
        {
          "name": "reward",
          "type": "uint256"
        },
        {
          "name": "cancelBlockHeight",
          "type": "uint256"
        },
        {
          "name": "state",
          "type": "uint8"
        }
      ],
      "payable": false,
      "stateMutability": "view",
      "type": "function"
    },
    {
      "constant": false,
      "inputs": [
        {
          "name": "customer",
          "type": "address"
        },
        {
          "name": "amount",
          "type": "uint256"
        },
        {
          "name": "reward",
          "type": "uint256"
        },
        {
          "name": "preImageHash",
          "type": "bytes32"
        },
        {
          "name": "blocksBeforeCancelEnabled",
          "type": "uint256"
        },
        {
          "name": "supercavitationGas",
          "type": "uint256"
        }
      ],
      "name": "createSwap",
      "outputs": [],
      "payable": false,
      "stateMutability": "nonpayable",
      "type": "function"
    },
    {
      "constant": false,
      "inputs": [
        {
          "name": "preImageHash",
          "type": "bytes32"
        },
        {
          "name": "preImage",
          "type": "bytes32"
        }
      ],
      "name": "completeSwap",
      "outputs": [],
      "payable": false,
      "stateMutability": "nonpayable",
      "type": "function"
    },
    {
      "constant": false,
      "inputs": [
        {
          "name": "preImageHash",
          "type": "bytes32"
        }
      ],
      "name": "cancelSwap",
      "outputs": [],
      "payable": false,
      "stateMutability": "nonpayable",
      "type": "function"
    }
  ],
  "bytecode": "0x60806040523480156200001157600080fd5b506040516200159b3803806200159b8339810180604052810190808051820192919060200180519060200190929190505050806000806101000a81548173ffffffffffffffffffffffffffffffffffffffff021916908373ffffffffffffffffffffffffffffffffffffffff16021790555081600190805190602001906200009b929190620000a4565b50505062000153565b828054600181600116156101000203166002900490600052602060002090601f016020900481019282601f10620000e757805160ff191683800117855562000118565b8280016001018555821562000118579182015b8281111562000117578251825591602001919060010190620000fa565b5b5090506200012791906200012b565b5090565b6200015091905b808211156200014c57600081600090555060010162000132565b5090565b90565b61143880620001636000396000f3006080604052600436106100a4576000357c0100000000000000000000000000000000000000000000000000000000900463ffffffff1680633da0e66e146100a95780635600f04f1461014457806378dc3356146101d457806379bb9cea146102135780638da5cb5b1461022a578063b8afaa4814610281578063bd097e21146102ac578063c4bce65c146102b6578063d541beb31461032f578063eb84e7f214610360575b600080fd5b3480156100b557600080fd5b506100d86004803603810190808035600019169060200190929190505050610411565b604051808673ffffffffffffffffffffffffffffffffffffffff1673ffffffffffffffffffffffffffffffffffffffff16815260200185815260200184815260200183815260200182600281111561012c57fe5b60ff1681526020019550505050505060405180910390f35b34801561015057600080fd5b50610159610491565b6040518080602001828103825283818151815260200191508051906020019080838360005b8381101561019957808201518184015260208101905061017e565b50505050905090810190601f1680156101c65780820380516001836020036101000a031916815260200191505b509250505060405180910390f35b3480156101e057600080fd5b506102116004803603810190808035600019169060200190929190803560001916906020019092919050505061052f565b005b34801561021f57600080fd5b5061022861093c565b005b34801561023657600080fd5b5061023f610b09565b604051808273ffffffffffffffffffffffffffffffffffffffff1673ffffffffffffffffffffffffffffffffffffffff16815260200191505060405180910390f35b34801561028d57600080fd5b50610296610b2e565b6040518082815260200191505060405180910390f35b6102b4610b34565b005b3480156102c257600080fd5b5061032d600480360381019080803573ffffffffffffffffffffffffffffffffffffffff169060200190929190803590602001909291908035906020019092919080356000191690602001909291908035906020019092919080359060200190929190505050610b6d565b005b34801561033b57600080fd5b5061035e6004803603810190808035600019169060200190929190505050611073565b005b34801561036c57600080fd5b5061038f600480360381019080803560001916906020019092919050505061135b565b604051808873ffffffffffffffffffffffffffffffffffffffff1673ffffffffffffffffffffffffffffffffffffffff16815260200187600019166000191681526020018681526020018581526020018481526020018381526020018260028111156103f757fe5b60ff16815260200197505050505050505060405180910390f35b60008060008060008060036000886000191660001916815260200190815260200160002090508060000160009054906101000a900473ffffffffffffffffffffffffffffffffffffffff168160020154826004015483600501548460060160009054906101000a900460ff16955095509550955095505091939590929450565b60018054600181600116156101000203166002900480601f0160208091040260200160405190810160405280929190818152602001828054600181600116156101000203166002900480156105275780601f106104fc57610100808354040283529160200191610527565b820191906000526020600020905b81548152906001019060200180831161050a57829003601f168201915b505050505081565b6000600360008460001916600019168152602001908152602001600020905082600019166002836040516020018082600019166000191681526020019150506040516020818303038152906040526040518082805190602001908083835b6020831015156105b2578051825260208201915060208101905060208303925061058d565b6001836020036101000a0380198251168184511680821785525050505050509050019150506020604051808303816000865af11580156105f6573d6000803e3d6000fd5b5050506040513d602081101561060b57600080fd5b810190808051906020019092919050505060001916141515610695576040517f08c379a00000000000000000000000000000000000000000000000000000000081526004018080602001828103825260138152602001807f496e636f727265637420707265496d6167652e0000000000000000000000000081525060200191505060405180910390fd5b600060028111156106a257fe5b8160060160009054906101000a900460ff1660028111156106bf57fe5b14151561075a576040517f08c379a000000000000000000000000000000000000000000000000000000000815260040180806020018281038252602c8152602001807f496e636f72726563742073746174652e204f726465722063616e206e6f74206281526020017f6520636f6d706c657465642e000000000000000000000000000000000000000081525060400191505060405180910390fd5b8060050154431015156107d5576040517f08c379a00000000000000000000000000000000000000000000000000000000081526004018080602001828103825260118152602001807f537761702068617320657870697265642e00000000000000000000000000000081525060200191505060405180910390fd5b60018160060160006101000a81548160ff021916908360028111156107f657fe5b021790555061082a816004015461081c83600201546002546113ca90919063ffffffff16565b6113ca90919063ffffffff16565b600281905550600081600401541115610889573373ffffffffffffffffffffffffffffffffffffffff166108fc82600401549081150290604051600060405180830381858888f19350505050158015610887573d6000803e3d6000fd5b505b8060000160009054906101000a900473ffffffffffffffffffffffffffffffffffffffff1673ffffffffffffffffffffffffffffffffffffffff166108fc82600201549081150290604051600060405180830381858888f193505050501580156108f7573d6000803e3d6000fd5b507fd9f8f7c0fa67fb35d5dcb2df5a6ccdcf36e67a6ea675021069e99879b3e366a78360405180826000191660001916815260200191505060405180910390a1505050565b6000809054906101000a900473ffffffffffffffffffffffffffffffffffffffff1673ffffffffffffffffffffffffffffffffffffffff163373ffffffffffffffffffffffffffffffffffffffff16141515610a26576040517f08c379a00000000000000000000000000000000000000000000000000000000081526004018080602001828103825260228152602001807f4f6e6c79206f776e65722063616e207769746864726177207468652066756e6481526020017f732e00000000000000000000000000000000000000000000000000000000000081525060400191505060405180910390fd5b6000809054906101000a900473ffffffffffffffffffffffffffffffffffffffff1673ffffffffffffffffffffffffffffffffffffffff166108fc610a8d6002543073ffffffffffffffffffffffffffffffffffffffff16316113ca90919063ffffffff16565b9081150290604051600060405180830381858888f19350505050158015610ab8573d6000803e3d6000fd5b507fd538f67a364826098861080c1d616ad29cc19cad44f7d267469df75be29fc17c3073ffffffffffffffffffffffffffffffffffffffff16316040518082815260200191505060405180910390a1565b6000809054906101000a900473ffffffffffffffffffffffffffffffffffffffff1681565b60025481565b7ff178429116095c7a6f2d351340cc8eb2a9ba2d5552de04cfda071fced46c6729346040518082815260200191505060405180910390a1565b6000600360008560001916600019168152602001908152602001600020905060008160020154141515610c08576040517f08c379a00000000000000000000000000000000000000000000000000000000081526004018080602001828103825260148152602001807f5377617020616c7265616479206578697374732e00000000000000000000000081525060200191505060405180910390fd5b600086111515610ca6576040517f08c379a00000000000000000000000000000000000000000000000000000000081526004018080602001828103825260238152602001807f5377617020616d6f756e74206d7573742062652067726561746572207468617481526020017f20302e000000000000000000000000000000000000000000000000000000000081525060400191505060405180910390fd5b600083111515610d44576040517f08c379a00000000000000000000000000000000000000000000000000000000081526004018080602001828103825260318152602001807f626c6f636b734265666f726543616e63656c456e61626c6564206d757374206281526020017f652067726561746572207468617420302e00000000000000000000000000000081525060400191505060405180910390fd5b6000809054906101000a900473ffffffffffffffffffffffffffffffffffffffff1673ffffffffffffffffffffffffffffffffffffffff163373ffffffffffffffffffffffffffffffffffffffff16141515610e08576040517f08c379a000000000000000000000000000000000000000000000000000000000815260040180806020018281038252601f8152602001807f4f6e6c79206f776e65722063616e206372656174652074686520737761702e0081525060200191505060405180910390fd5b610e346002543073ffffffffffffffffffffffffffffffffffffffff16316113ca90919063ffffffff16565b610e4783886113eb90919063ffffffff16565b11151515610ee3576040517f08c379a00000000000000000000000000000000000000000000000000000000081526004018080602001828103825260268152602001807f416d6f756e742069732067726561746572207468616e20617661696c626c652081526020017f66756e64732e000000000000000000000000000000000000000000000000000081525060400191505060405180910390fd5b868160000160006101000a81548173ffffffffffffffffffffffffffffffffffffffff021916908373ffffffffffffffffffffffffffffffffffffffff16021790555085816002018190555081816003018190555084816004018190555083816001018160001916905550610f6143846113eb90919063ffffffff16565b816005018190555060008160060160006101000a81548160ff02191690836002811115610f8a57fe5b0217905550610fb685610fa8886002546113eb90919063ffffffff16565b6113eb90919063ffffffff16565b6002819055508060000160009054906101000a900473ffffffffffffffffffffffffffffffffffffffff1673ffffffffffffffffffffffffffffffffffffffff166108fc82600301549081150290604051600060405180830381858888f1935050505015801561102a573d6000803e3d6000fd5b507f9158b9e1fb22eda628ebc421e6dbcd7bd4d6c883727d44dac376b328c35072268460405180826000191660001916815260200191505060405180910390a150505050505050565b600060036000836000191660001916815260200190815260200160002090506000809054906101000a900473ffffffffffffffffffffffffffffffffffffffff1673ffffffffffffffffffffffffffffffffffffffff163373ffffffffffffffffffffffffffffffffffffffff16141515611156576040517f08c379a000000000000000000000000000000000000000000000000000000000815260040180806020018281038252601f8152602001807f4f6e6c79206f776e65722063616e2063616e63656c2074686520737761702e0081525060200191505060405180910390fd5b806005015443101515156111f8576040517f08c379a00000000000000000000000000000000000000000000000000000000081526004018080602001828103825260328152602001807f43616e63656c207377617020626c6f636b2068656967687420686173206e6f7481526020017f206265656e2072656163686564207965742e000000000000000000000000000081525060400191505060405180910390fd5b6000600281111561120557fe5b8160060160009054906101000a900460ff16600281111561122257fe5b1415156112bd576040517f08c379a000000000000000000000000000000000000000000000000000000000815260040180806020018281038252602b8152602001807f496e636f72726563742073746174652e204f726465722063616e206e6f74206281526020017f652043616e63656c65642e00000000000000000000000000000000000000000081525060400191505060405180910390fd5b60028160060160006101000a81548160ff021916908360028111156112de57fe5b0217905550611312816004015461130483600201546002546113ca90919063ffffffff16565b6113ca90919063ffffffff16565b6002819055507fb89d0881c20ed632999464b93927d06bc8470f5e1a509fcfa39dae6e3e67202d8260405180826000191660001916815260200191505060405180910390a15050565b60036020528060005260406000206000915090508060000160009054906101000a900473ffffffffffffffffffffffffffffffffffffffff16908060010154908060020154908060030154908060040154908060050154908060060160009054906101000a900460ff16905087565b6000808383111515156113dc57600080fd5b82840390508091505092915050565b600080828401905083811015151561140257600080fd5b80915050929150505600a165627a7a72305820216efe360436cf8e38f61442f196207efecb60e246db13b05fa846c35b5b394a0029",
  "source": "pragma solidity ^0.4.24;\n\nimport './SafeMath.sol';\n\ncontract SwapOffering {\n\n  using SafeMath for uint256;\n\n  address public owner;\n  string public url;\n  uint256 public lockedFunds;\n\n  enum SwapState { Created, Completed, Canceled }\n\n  struct Swap {\n    address customer;\n    bytes32 preImageHash;\n    uint256 amount;\n    uint256 supercavitationGas;\n    uint256 reward;\n    uint256 cancelBlockHeight;\n    SwapState state;\n  }\n\n  mapping(bytes32 => Swap) public swaps;\n\n  event contractFunded(uint256 fundAmount);\n  event contractWithdrawn(uint256 balance);\n\n  event swapCreated(bytes32 preImageHash);\n  event swapCompleted(bytes32 preImageHash);\n  event swapCanceled(bytes32 preImageHash);\n\n  constructor(string _url, address _owner) public {\n    owner = _owner;\n    url = _url;\n  }\n\n  function fundContract() public payable {\n    emit contractFunded(msg.value);\n  }\n\n  function withdrawAvailableFunds() public {\n\n    require(msg.sender == owner, \"Only owner can withdraw the funds.\");\n\n    owner.transfer(address(this).balance.sub(lockedFunds));\n\n    emit contractWithdrawn(address(this).balance);\n  }\n\n  function getSwap(bytes32 preImageHash) public constant returns (\n    address customer, uint256 amount, uint256 reward, uint256 cancelBlockHeight, SwapState state) {\n\n    Swap storage swap = swaps[preImageHash];\n\n    return (swap.customer, swap.amount, swap.reward, swap.cancelBlockHeight, swap.state);\n  }\n\n  function createSwap(address customer, uint256 amount, uint256 reward, bytes32 preImageHash, uint256 blocksBeforeCancelEnabled, uint256 supercavitationGas) public {\n    Swap storage swap = swaps[preImageHash];\n\n    require(swap.amount == 0, \"Swap already exists.\");\n    require(amount > 0, \"Swap amount must be greater that 0.\");\n    require(blocksBeforeCancelEnabled > 0, \"blocksBeforeCancelEnabled must be greater that 0.\");\n    require(msg.sender == owner, \"Only owner can create the swap.\");\n    require(amount.add(supercavitationGas) <= address(this).balance.sub(lockedFunds), \"Amount is greater than availble funds.\");\n\n    swap.customer = customer;\n    swap.amount = amount;\n    swap.supercavitationGas = supercavitationGas;\n    swap.reward = reward;\n    swap.preImageHash = preImageHash;\n    swap.cancelBlockHeight =  blocksBeforeCancelEnabled.add(block.number);\n    swap.state = SwapState.Created;\n\n    lockedFunds = lockedFunds.add(amount).add(reward);\n    swap.customer.transfer(swap.supercavitationGas);\n\n    emit swapCreated(preImageHash);\n  }\n\n  function completeSwap(bytes32 preImageHash, bytes32 preImage) public {\n    Swap storage swap = swaps[preImageHash];\n\n    require(sha256(abi.encodePacked(preImage)) == preImageHash, \"Incorrect preImage.\");\n    require(swap.state == SwapState.Created, \"Incorrect state. Order can not be completed.\");\n    require(block.number < swap.cancelBlockHeight, \"Swap has expired.\");\n\n    swap.state = SwapState.Completed;\n    lockedFunds = lockedFunds.sub(swap.amount).sub(swap.reward);\n\n    if (swap.reward > 0) {\n      msg.sender.transfer(swap.reward);\n    }\n    swap.customer.transfer(swap.amount);\n\n    emit swapCompleted(preImageHash);\n  }\n\n  function cancelSwap(bytes32 preImageHash) public {\n    Swap storage swap = swaps[preImageHash];\n\n    require(msg.sender == owner, \"Only owner can cancel the swap.\");\n    require(block.number >= swap.cancelBlockHeight, \"Cancel swap block height has not been reached yet.\");\n    require(swap.state == SwapState.Created, \"Incorrect state. Order can not be Canceled.\");\n\n    swap.state = SwapState.Canceled;\n    lockedFunds = lockedFunds.sub(swap.amount).sub(swap.reward);\n\n    emit swapCanceled(preImageHash);\n  }\n}\n",
  "sourcePath": "/Users/lion/code/lncm/supercavitation-swaps/supercavitation-contracts/contracts/SwapOffering.sol",
  "compiler": {
    "name": "solc",
    "version": "0.4.24+commit.e67f0147.Emscripten.clang"
  },
  "schemaVersion": "2.0.1",
  "updatedAt": "2018-12-03T17:17:28.683Z"
}